:020000040800F2
:10000000F8040020510F0008B30E0008230F000869
:1000100000000000000000000000000000000000E0
:100020000000000000000000000000002F0F00088A
:100030000000000000000000590F00085B0F0008DE
:100040005D0F00085F0F0008610F0008630F0008D4
:10005000650F0008670F0008690F00086B0F0008A4
:100060006D0F00086F0F0008710F0008730F000874
:10007000750F0008770F0008790F00087B0F000844
:100080007D0F00087F0F0008810F0008830F000814
:10009000850F0008870F0008890F00088B0F0008E4
:1000A0008D0F00088F0F0008910F0008930F0008B4
:1000B000950F0008970F0008990F0008E90700083E
:1000C00030B50C001500C10705D5C0B2401C022197
:1000D00000F058FE03E0C0B2022100F053FE002100
:1000E0000AE0ADB2C9B202224A43AA18204BD21884
:1000F00023881380A41C491C02000B00D2B2DBB27F
:100100009A42EED230BD10B5040054480288200057
:10011000C0B2FFF7D5FF524852490988E4B2154AE8
:1001200014800A005049114030220A4030235340C5
:100130000A004E49114019430A004D4911400A0076
:1001400064491140474A11807C498968624A0A40E3
:100150007A498A6000E0401E784989680A005201A5
:10016000D20F002A01D10028F5D110BD00000000F7
:10017000006000400260004080B571483948008846
:10018000C02189010140C02292014A400100364845
:10019000084010433021014020224A4001003348EA
:1001A0000840104301003248084001004948084017
:1001B0002C49088061488068624901405F4881603D
:1001C0005E48806801000901C90F002907D15E4817
:1001D00000780028F4D15C4840780028F0D11F480E
:1001E00082885A49202000F0CDFC00225749202067
:1001F00000F0C8FC01BD000000B555481949098848
:100200000022544B1A800A001749114030220A403C
:10021000302353400A001549114019430A002D4963
:1002200011404A0603D50A001149114002E00A00B4
:10023000402111430B4A118000E0401E3F4989686C
:100240000A005201D20F002A01D10028F5D13B4803
:100250008068214901403948816000BD00000020CC
:1002600040420F00005C0040FFCF0000CFFF0000C5
:10027000BFFF000000B536483749098830220A40E0
:10028000302353400A003549114019430A003449CC
:1002900011404A0603D50A003249114002E00A0023
:1002A000402111430A000B4911402B4A118000E004
:1002B000401E224989680A001201D20F002A01D18A
:1002C0000028F5D11D4880681E4901401B48816007
:1002D00000BD0000FFBF0000FFFFFFFB80B51E4810
:1002E00000680F2188431C4908601B4800681E49AC
:1002F00001408020800008431749086016480068C4
:100300001A49414014480160002219490820FFF7AA
:10031000D7FE184800688021014316480160144840
:10032000008805494018054908601148808802493D
:1003300040180249486001BD0060004038070020B5
:1003400080969800FFFFFFF758070020F80600206E
:10035000A086010002600040005C0040CFFF00006A
:10036000FFCF0000BFFF0000FFF9FFFF20300000BB
:10037000000000204C5C004080B5BC480078BC49BF
:100380000870BC480078BA494870BB480088B84932
:100390004880BA480088B6498880B9480088B4497E
:1003A000C880B84800680078002804D0B5480068C4
:1003B0000078B5490870B2480088B3490870AB4866
:1003C0000078B249B24A128808235343C854A94856
:1003D0000078AE49AE4A128808235343C9184870C2
:1003E000A5480088A949AA4A128808235343C91876
:1003F0004880A2480088A549A54A1288082353438B
:10040000C91888809E480088A049A14A12880823FC
:100410005343C918C8809E4800883F2802DB00204B
:100420009B49088098480078002803D094480088A9
:1004300095490870C748806801000901C90F002963
:1004400000D19FE1C34880680100C900C90F00299D
:1004500000D140E185480078C0B2002800D1A8E072
:10046000212800D1EEE0802806D0812800D112E1B9
:10047000A12800D1C8E034E17E480078C0B2062847
:1004800000D095E07C48008880B280214900401A65
:100490000ED080214900401A26D080214900401A00
:1004A00036D0401E48D0401E5AD0401E6CD07FE04F
:1004B000B5484078002803D0B3484078B249487026
:1004C00071480078122804DA6D4800886E49087077
:1004D00002E012206C490870AC496B480078FFF7C5
:1004E00012FEFFF7C7FE63E067480078292804DAA8
:1004F000634800886449087002E029206249087056
:10050000A34961480078FFF7FEFDFFF7B3FE4FE017
:100510005D480078042804DA594800885A49087070
:1005200002E00420584908709A4957480078FFF7BC
:10053000EAFDFFF79FFE3BE0534800780C2804DA01
:100540004F4800885049087002E00C204E4908705E
:1005500091494D480078FFF7D6FDFFF78BFE27E065
:1005600049480078142804DA45480088464908704C
:1005700002E0142044490870884943480078FFF796
:10058000C2FDFFF777FE13E03F480078122804DA37
:100590003B4800883C49087002E012203A49087044
:1005A0007F4939480078FFF7AEFDFFF763FEFFE7AC
:1005B00097E030480078C0B2052802D009281BD047
:1005C00021E02D48008870494870FFF715FE7548F6
:1005D00000687F2188436C4949784906490E0143E8
:1005E000704801606F480068802101436D480160D8
:1005F00001206549087006E01F480088624948707C
:10060000FFF7FAFDFFE76CE067480078C0B2012809
:1006100017D11B48008869460880684600886946EB
:1006200008806248694608806148828861492020C4
:1006300000F0A8FA69460220FFF765FDFFF71AFEF1
:10064000FFE74EE058480078C0B2092822D10020C8
:1006500069460880FFF790FDFFF7CEFD5448828879
:100660005449202000F08EFA14E000BF8060004062
:10067000500700208160004082600040846000409C
:10068000866000404000002066070020F80400203B
:100690006407002025E044480078C0B2062819D13C
:1006A0004548008880B288218901884212D1434898
:1006B0000078332804DA424800884049087002E094
:1006C00033203E4908703F493C480078FFF71BFD46
:1006D000FFF7D0FD05E0364882883649202000F03B
:1006E00051FA394800886946088068460088C02168
:1006F00089010140C0208001484069460988334A89
:100700000A40024368460280684600883021014062
:1007100020204840694609882D4A0A40024368461D
:10072000028068460088400604D56846008869460D
:10073000088005E068460088264901406846018037
:1007400068460088400407D56846008869460880E6
:1007500008E000BF38070020684600881E490140B5
:100760006846018068460088174908801B488068F1
:100770001B490140194881601848806819490140A7
:100780001648816001BD000060070020480000207D
:100790005C000020880000208C00002098000020D1
:1007A000AC0000204C5C00408160004045560000D9
:1007B00000000020F806002082600040660700204C
:1007C00086600040C0000020005C0040FFCF0000B9
:1007D000CFFF0000BFFF0000FFBF00003807002070
:1007E000FFFFFFF7FFFFFFFB10B50024D9480068AB
:1007F00001004905C90F00290CD0D6480068D64928
:100800000140D4480160FFF769FDD4480088401CCE
:10081000D2490880CF48006801000904C90F0029A7
:1008200000D196E1CB48006800090100C907C90F53
:10083000CB480170C74800680100C906C90F0029EC
:1008400000D1BBE0C3480068C6490140C14801600F
:10085000C04800680407240FC348E4B21021614374
:100860004018C088C349E4B20C22624389188968E1
:10087000BE4A0A400004BE4901401143BD48E4B2EB
:100880000C22624380188160BB48E4B204216143BA
:10089000405AB849E4B20C22624389180881B5482D
:1008A000E4B20C21614340188168B4480840B14962
:1008B000E4B20C2262438918098989B2C90B89B252
:1008C000C9060143AB48E4B20C2262438018816040
:1008D000A848E4B20C21614340188168A848084048
:1008E000A449E4B20C2262438918098989B2C90A71
:1008F00089B2090780225205114001439D48E4B2A4
:100900000C226243801881609A48E4B20C21614352
:1009100040188168B94808409649E4B20C22624305
:1009200089180989C9B2C909C9B289060143914820
:10093000E4B20C226243801881608E48E4B20C213C
:10094000614340180089AE4901408A48E4B20C2254
:100950006243801801818748E4B20C21614340184A
:1009600000898549E4B20422624388528148E4B296
:100970000C21614340188068000F0100C907C90FAE
:10098000774841707648C078401C7549C8707948EE
:10099000E4B20C216143401880680100C900C90F0E
:1009A000002905D06E484079401C6D494871C6E069
:1009B0006B480079401C6A490871C0E065480068CE
:1009C0006849014063480160624800680407240FD9
:1009D0006548E4B2102161434018C0886549E4B21B
:1009E0000C22624389188968604A0A400004604901
:1009F000014011435F48E4B20C22624380188160D9
:100A00005D48E4B204216143405A5A49E4B20C22E1
:100A10006243891808815748E4B20C2161434018A9
:100A20008168564808405349E4B20C226243891851
:100A3000098989B2C90B89B2C90601434D48E4B29C
:100A40000C226243801881604A48E4B20C21614361
:100A5000401881684A4808404649E4B20C22624383
:100A60008918098989B2C90A89B209078022520501
:100A7000114001433F48E4B20C2262438018816078
:100A80003C48E4B20C216143401881685B4808404F
:100A90003849E4B20C22624389180989C9B2C909EC
:100AA000C9B2890601433348E4B20C22624380187C
:100AB00081603048E4B20C216143401800895049FC
:100AC00001402C48E4B20C2262438018018129487D
:100AD000E4B20C216143401800892749E4B20422A2
:100AE000624388522348E4B20C2161434018806875
:100AF000000F0100C907C90F1948417018488078D4
:100B0000401C174988701B48E4B20C21614340180F
:100B100080680100C900C90F002905D0104840793C
:100B2000401C0F4948710AE00D480079401C0C49EF
:100B30000871724882887249202000F023F8E4B2DC
:100B4000002C01D00548048804480088401C034953
:100B5000088010BD445C0040FFFBFFFF64070020DD
:100B600058070020FF7FFFFF00600040FFFF00FCF0
:100B70000000FF0338070020005C0040FFFFFFF784
:100B8000FFFFFFEF30B592B2C0B213185E4C1B19D5
:100B90005E4C2360C30712D55C4B1B68002B0ED044
:100BA0005B4B1B78002B0AD092B2C0B21318564C84
:100BB0001B191B88C0B2441002256C430B5500233F
:100BC00013E092B2DBB202245C4314194D4D641958
:100BD0004E4D2C6092B2DBB202245C431419494D95
:100BE000641924880C80891C5B1C1C000500EDB274
:100BF0006D08E4B2AC42E4D330BD0000FFFFFFFB60
:100C00004F0F000000B544480068802109050143EA
:100C10004148016041480068802188433F4908609D
:100C20003F4800688021490201433D4801603C483B
:100C3000006801008903C90F0029F8D0394800680D
:100C40001021014337480160364800680721884376
:100C500001210143334801603348006833490140B2
:100C600080208005084330490860314800684021F1
:100C700001432F4801602E480068202101432C4881
:100C800001602C480068032101432A48016000BD2F
:100C9000214800688021090401431F48016026485B
:100CA00000681021014324480160244800680121A4
:100CB00088432249086021480068022188431F496F
:100CC00008601E4800688021090201431B4801603A
:100CD0001A4800688021C9000143184801600020BB
:100CE0001749088017480068802109020143154808
:100CF000016080200006074908607047000000205E
:100D0000F806002000600040FF5F00404400002023
:100D1000F400002000E100E01C100240301002400E
:100D20003410024000200240046C0040FFFFFFCF5F
:100D3000006C00400410024000000140405C004094
:100D4000445C0040585C004080B5FFF75BFFFFF754
:100D50009FFFFFF711FBFCE7F446002804D449424B
:100D600000F013F8404260474042002905D45FD0AC
:100D700000F00BF8404249426047494200F005F854
:100D80004942604703460B43E6D40022030A8B42E4
:100D90000BD203098B4219D243088B422ED2411A3F
:100DA00000D20146524110467047FF2209023FD04F
:100DB00012068B4205D3121209028B4201D3121282
:100DC000090203098B4219D300E0090AC3098B42C7
:100DD00001D3CB01C01A524183098B4201D38B014D
:100DE000C01A524143098B4201D34B01C01A5241F0
:100DF00003098B4201D30B01C01A5241C3088B4235
:100E000001D3CB00C01A524183088B4201D38B001F
:100E1000C01A524143088B4201D34B00C01A5241C1
:100E2000884200D3401A5241CFD201461046704743
:100E300008B500F001F808BD704770B40121002228
:100E400013E00468001D0C4202D04D466D1E64196B
:100E50002260241D1B1F042BFAD225009E0701D5FA
:100E60002280AD1C0B4000D02A700368001D002BAF
:100E7000E7D170BC704730B501684118446862081A
:100E80008A188368E40701D54C461B19914201D1A9
:100E90000C3030BD0C7864B2491C0D78491C1D70B3
:100EA0005B1C002C02D5641CF9D1EFE7641EF4D55D
:100EB000ECE7FEE710B5074979441831064C7C444D
:100EC000163404E0081D0A68891888470100A14209
:100ED000F8D110BD08000000240000005FFFFFFFF4
:100EE00070020000F8040020000000008BFFFFFFEC
:100EF000AA000000720100000000002000F00BF8C2
:100F0000002801D0FFF7D6FF002000BF00BFFFF789
:100F10001BFF00F002F80120704780B500F002F8D6
:100F200001BDFEE70746384600F002F8FBE7FEE7A2
:100F300080B500BF00BF024A11001820ABBEFBE71E
:100F40002600020000BF00BF00BF00BFFFF7D6FFB2
:100F500000480047450F0008FEE7FEE7FEE7FEE712
:100F6000FEE7FEE7FEE7FEE7FEE7FEE7FEE7FEE759
:100F7000FEE7FEE7FEE7FEE7FEE7FEE7FEE7FEE749
:100F8000FEE7FEE7FEE7FEE7FEE7FEE7FEE7FEE739
:100F9000FEE7FEE7FEE7FEE7FEE7074000400080D1
:100FA000000084C800048060004001FD00031201BD
:100FB0001001FD001B404556535200010102030180
:100FC000000009022900010100C0320904000001EB
:100FD00003FD0016092111010001223300070580DD
:100FE0000040000107050000400001FD002004034F
:100FF000090D0C034D0061006E00750066001403BE
:10100000480049004400200054004500530054FDAE
:101010000008120353004E0075006DF50034060001
:10102000FF0901A10185010901150025FF7508953A
:1010300003B10285020901150025FF75089523B14A
:101040008285030903150025FF7508962301B182E7
:03105000C0005588
:0400000508000F459B
:00000001FF
